{
  "contracts/mock/EtherUSDMockAggregator.sol": {
    "EtherUSDMockAggregator": {
      "abi": [
        {
          "inputs": [],
          "name": "decimals",
          "outputs": [
            {
              "internalType": "uint8",
              "name": "",
              "type": "uint8"
            }
          ],
          "stateMutability": "pure",
          "type": "function"
        },
        {
          "inputs": [],
          "name": "latestRoundData",
          "outputs": [
            {
              "internalType": "uint80",
              "name": "",
              "type": "uint80"
            },
            {
              "internalType": "int256",
              "name": "answer",
              "type": "int256"
            },
            {
              "internalType": "uint256",
              "name": "",
              "type": "uint256"
            },
            {
              "internalType": "uint256",
              "name": "",
              "type": "uint256"
            },
            {
              "internalType": "uint80",
              "name": "",
              "type": "uint80"
            }
          ],
          "stateMutability": "pure",
          "type": "function"
        }
      ],
      "devdoc": {
        "kind": "dev",
        "methods": {},
        "version": 1
      },
      "evm": {
        "bytecode": {
          "linkReferences": {},
          "object": "608060405234801561001057600080fd5b506101b2806100206000396000f3fe608060405234801561001057600080fd5b50600436106100365760003560e01c8063313ce5671461003b578063feaf968c14610059575b600080fd5b61004361007b565b604051610050919061012a565b60405180910390f35b610061610084565b6040516100729594939291906100d7565b60405180910390f35b60006008905090565b6000806000806000645d21dba00093509091929394565b6100a481610145565b82525050565b6100b38161014f565b82525050565b6100c281610166565b82525050565b6100d181610159565b82525050565b600060a0820190506100ec60008301886100b9565b6100f9602083018761009b565b61010660408301866100aa565b61011360608301856100aa565b61012060808301846100b9565b9695505050505050565b600060208201905061013f60008301846100c8565b92915050565b6000819050919050565b6000819050919050565b600060ff82169050919050565b600069ffffffffffffffffffff8216905091905056fea264697066735822122069a2f0caba643c84543fcb9a5a5b0abceef950f8b484f696017c41356eb9420d64736f6c63430008040033",
          "opcodes": "PUSH1 0x80 PUSH1 0x40 MSTORE CALLVALUE DUP1 ISZERO PUSH2 0x10 JUMPI PUSH1 0x0 DUP1 REVERT JUMPDEST POP PUSH2 0x1B2 DUP1 PUSH2 0x20 PUSH1 0x0 CODECOPY PUSH1 0x0 RETURN INVALID PUSH1 0x80 PUSH1 0x40 MSTORE CALLVALUE DUP1 ISZERO PUSH2 0x10 JUMPI PUSH1 0x0 DUP1 REVERT JUMPDEST POP PUSH1 0x4 CALLDATASIZE LT PUSH2 0x36 JUMPI PUSH1 0x0 CALLDATALOAD PUSH1 0xE0 SHR DUP1 PUSH4 0x313CE567 EQ PUSH2 0x3B JUMPI DUP1 PUSH4 0xFEAF968C EQ PUSH2 0x59 JUMPI JUMPDEST PUSH1 0x0 DUP1 REVERT JUMPDEST PUSH2 0x43 PUSH2 0x7B JUMP JUMPDEST PUSH1 0x40 MLOAD PUSH2 0x50 SWAP2 SWAP1 PUSH2 0x12A JUMP JUMPDEST PUSH1 0x40 MLOAD DUP1 SWAP2 SUB SWAP1 RETURN JUMPDEST PUSH2 0x61 PUSH2 0x84 JUMP JUMPDEST PUSH1 0x40 MLOAD PUSH2 0x72 SWAP6 SWAP5 SWAP4 SWAP3 SWAP2 SWAP1 PUSH2 0xD7 JUMP JUMPDEST PUSH1 0x40 MLOAD DUP1 SWAP2 SUB SWAP1 RETURN JUMPDEST PUSH1 0x0 PUSH1 0x8 SWAP1 POP SWAP1 JUMP JUMPDEST PUSH1 0x0 DUP1 PUSH1 0x0 DUP1 PUSH1 0x0 PUSH5 0x5D21DBA000 SWAP4 POP SWAP1 SWAP2 SWAP3 SWAP4 SWAP5 JUMP JUMPDEST PUSH2 0xA4 DUP2 PUSH2 0x145 JUMP JUMPDEST DUP3 MSTORE POP POP JUMP JUMPDEST PUSH2 0xB3 DUP2 PUSH2 0x14F JUMP JUMPDEST DUP3 MSTORE POP POP JUMP JUMPDEST PUSH2 0xC2 DUP2 PUSH2 0x166 JUMP JUMPDEST DUP3 MSTORE POP POP JUMP JUMPDEST PUSH2 0xD1 DUP2 PUSH2 0x159 JUMP JUMPDEST DUP3 MSTORE POP POP JUMP JUMPDEST PUSH1 0x0 PUSH1 0xA0 DUP3 ADD SWAP1 POP PUSH2 0xEC PUSH1 0x0 DUP4 ADD DUP9 PUSH2 0xB9 JUMP JUMPDEST PUSH2 0xF9 PUSH1 0x20 DUP4 ADD DUP8 PUSH2 0x9B JUMP JUMPDEST PUSH2 0x106 PUSH1 0x40 DUP4 ADD DUP7 PUSH2 0xAA JUMP JUMPDEST PUSH2 0x113 PUSH1 0x60 DUP4 ADD DUP6 PUSH2 0xAA JUMP JUMPDEST PUSH2 0x120 PUSH1 0x80 DUP4 ADD DUP5 PUSH2 0xB9 JUMP JUMPDEST SWAP7 SWAP6 POP POP POP POP POP POP JUMP JUMPDEST PUSH1 0x0 PUSH1 0x20 DUP3 ADD SWAP1 POP PUSH2 0x13F PUSH1 0x0 DUP4 ADD DUP5 PUSH2 0xC8 JUMP JUMPDEST SWAP3 SWAP2 POP POP JUMP JUMPDEST PUSH1 0x0 DUP2 SWAP1 POP SWAP2 SWAP1 POP JUMP JUMPDEST PUSH1 0x0 DUP2 SWAP1 POP SWAP2 SWAP1 POP JUMP JUMPDEST PUSH1 0x0 PUSH1 0xFF DUP3 AND SWAP1 POP SWAP2 SWAP1 POP JUMP JUMPDEST PUSH1 0x0 PUSH10 0xFFFFFFFFFFFFFFFFFFFF DUP3 AND SWAP1 POP SWAP2 SWAP1 POP JUMP INVALID LOG2 PUSH5 0x6970667358 0x22 SLT KECCAK256 PUSH10 0xA2F0CABA643C84543FCB SWAP11 GAS JUMPDEST EXP 0xBC 0xEE 0xF9 POP 0xF8 0xB4 DUP5 0xF6 SWAP7 ADD PUSH29 0x41356EB9420D64736F6C63430008040033000000000000000000000000 "
        },
        "gasEstimates": {
          "creation": {
            "codeDepositCost": "86800",
            "executionCost": "135",
            "totalCost": "86935"
          },
          "external": {
            "decimals()": "321",
            "latestRoundData()": "infinite"
          }
        },
        "methodIdentifiers": {
          "decimals()": "313ce567",
          "latestRoundData()": "feaf968c"
        }
      },
      "storageLayout": {
        "storage": [],
        "types": null
      },
      "userdoc": {
        "kind": "user",
        "methods": {},
        "version": 1
      }
    }
  }
}