{
  "_format": "hh-sol-artifact-1",
  "contractName": "EtherUSDMockAggregator",
  "sourceName": "contracts/mock/EtherUSDMockAggregator.sol",
  "abi": [
    {
      "inputs": [],
      "name": "decimals",
      "outputs": [
        {
          "internalType": "uint8",
          "name": "",
          "type": "uint8"
        }
      ],
      "stateMutability": "pure",
      "type": "function"
    },
    {
      "inputs": [],
      "name": "latestRoundData",
      "outputs": [
        {
          "internalType": "uint80",
          "name": "",
          "type": "uint80"
        },
        {
          "internalType": "int256",
          "name": "answer",
          "type": "int256"
        },
        {
          "internalType": "uint256",
          "name": "",
          "type": "uint256"
        },
        {
          "internalType": "uint256",
          "name": "",
          "type": "uint256"
        },
        {
          "internalType": "uint80",
          "name": "",
          "type": "uint80"
        }
      ],
      "stateMutability": "pure",
      "type": "function"
    }
  ],
  "bytecode": "0x608060405234801561001057600080fd5b506101b2806100206000396000f3fe608060405234801561001057600080fd5b50600436106100365760003560e01c8063313ce5671461003b578063feaf968c14610059575b600080fd5b61004361007b565b604051610050919061012a565b60405180910390f35b610061610084565b6040516100729594939291906100d7565b60405180910390f35b60006008905090565b6000806000806000645d21dba00093509091929394565b6100a481610145565b82525050565b6100b38161014f565b82525050565b6100c281610166565b82525050565b6100d181610159565b82525050565b600060a0820190506100ec60008301886100b9565b6100f9602083018761009b565b61010660408301866100aa565b61011360608301856100aa565b61012060808301846100b9565b9695505050505050565b600060208201905061013f60008301846100c8565b92915050565b6000819050919050565b6000819050919050565b600060ff82169050919050565b600069ffffffffffffffffffff8216905091905056fea264697066735822122069a2f0caba643c84543fcb9a5a5b0abceef950f8b484f696017c41356eb9420d64736f6c63430008040033",
  "linkReferences": {},
  "deployedLinkReferences": {}
}